:020000040800F2
:10000000FCFF0020E12100006920000069200000C1
:1000100069200000692000006920000069200000BC
:1000200069200000692000006920000069200000AC
:10003000692000006920000069200000692000009C
:10004000692000006920000069200000692000008C
:10005000692000006920000069200000692000007C
:10006000692000006920000069200000692000006C
:10007000692000006920000069200000692000005C
:10008000692000006920000069200000692000004C
:10009000692000006920000069200000692000003C
:1000A000692000006920000069200000692000002C
:1000B0007120000069200000692000006920000014
:1000C000692000006920000069200000692000000C
:1000D00069200000692000006920000069200000FC
:1000E00069200000692000006920000069200000EC
:1000F00069200000692000006920000069200000DC
:1001000069200000692000006920000069200000CB
:1001100069200000692000006920000069200000BB
:1001200069200000692000006920000069200000AB
:10013000692000006920000069200000692000009B
:10014000692000006920000069200000692000008B
:1001500083B0CDF800E000F0FF031A09104603F069
:100160000F02134614E0194A02921FE0184A029245
:100170001CE0184A029219E0174A029216E0174A48
:10018000029213E0164A029210E0164A02920DE023
:100190000028E8D00128E9D00228EAD00328EBD0D3
:1001A0000428ECD00528EDD00628EED0012212B2AA
:1001B0009A40ADF8042002980A46BDF8041000F0F9
:1001C0007DFADDF800E003B0704700BF0008014091
:1001D000000C0140001001400014014000180140D3
:1001E000001C01400020014001480068704700BF2A
:1001F0004005002081B0194900EA010108460022AB
:100200000EE0042022E0082020E010201EE0202044
:100210001CE040201AE0802018E040F2001015E0B9
:100220000F498842EDD00F498842ECD00E498842F0
:10023000EBD00E498842EAD00D498842E9D00D49F9
:100240008842E8D00C498842E7D010460B4909683B
:1002500041EA000209490A6001B0704700FCFFFF53
:1002600000080140000C0140001001400014014052
:1002700000180140001C01400020014018100240FD
:1002800082B0CDF800E0034619460191FFF7ACFFBC
:1002900040F2E83100FB01F201990A601F49097838
:1002A000C1F30311C8B21E4909180878C0B21A1D5B
:1002B0001968C140116019490988C1F3022188B247
:1002C000174909180878C0B203F20802191D096815
:1002D000C140116011490988C1F3C22188B2104997
:1002E00009180878C0B203F20C02191D0968C14050
:1002F00011600A490988C1F3813188B20949091896
:100300000978C8B203F2100203F20C010968B1FBCC
:10031000F0F11160DDF800E002B070470410024017
:10032000D8240000F424000081B00168C1F38010DB
:1003300001B07047014640F2000340F2000082B273
:100340000846C118097821B15B1C9BB2521C92B2BD
:10035000F7E790B27047FFFF93B20A46014640F2BA
:10036000000440F200001FFA80F810469AB2EAB189
:100370000B191D78EEB2631C9FB200EB08031C78CA
:100380005FFA84F908F101081FFA88F8A54207D03E
:100390004E4502D2FF2040B201E0012040B207E00A
:1003A00006B903E0521E92B2BCB2E0E7002040B2B0
:1003B0007047FFFF81B0CDF800E0012252B23E4904
:1003C0000A6000F268010B686FF0006103EA010245
:1003D000144603F00061C90E0B4602F00041B1F172
:1003E000004F02D135490A6801E035490A6804F432
:1003F0007021090C0E464FF6FF7104EA01010D460B
:1004000004F44011B1F5401F0DD16FF0706102EAA4
:1004100001010E462A490A686FF070610A402849B6
:100420000A60324616E004F48011B1F5801F09D14C
:100430004FF00301B140C94302EA010141F070618C
:100440000A4607E0610D090105FA01F1C9430A40B6
:1004500042F070622BB1610D090105FA01F10A4306
:10046000FFE704F00041B1F1004F02D113490A60E7
:1004700001E013490A6040F2000A81464FEA8A010E
:1004800009EB01010968B1F1FF3F10D009F1340116
:100490004FEA8A03C91809680A4609EB030109688B
:1004A00008461146FFF754FE0AF1010AE6E7DDF8B7
:1004B00000E001B0704700BF000342421C00014051
:1004C0000400014081B00268C2F3401101B9FAE7AB
:1004D000011D096888B201B07047FFFF81B0016853
:1004E000C1F3401001B0704701480068704700BF79
:1004F0002801224281B0CDF800E00348FFF7E2FF77
:10050000DDF800E001B0704700500040014800688D
:10051000704700BF3881224281B0CDF800E0034827
:10052000FFF7DCFFDDF800E001B07047004C004051
:1005300081B0CDF800E00348FFF7F6FEDDF800E0FB
:1005400001B07047004C004001480068704700BF90
:100550002C01224201480068704700BF300122424E
:1005600081B0CDF800E00348FFF7DEFEDDF800E0E3
:1005700001B070470050004001480068704700BF5C
:100580001C81214281B0CDF800E00348FFF7A6FFAF
:10059000DDF800E001B070470050004001480068FD
:1005A000704700BF1401214281B0CDF800E003483C
:1005B000FFF7BAFEDDF800E001B0704700440040EC
:1005C00081B0CDF800E00348FFF77CFFDDF800E0E4
:1005D00001B070470048004081B0CDF800E003480A
:1005E000FFF77CFFDDF800E001B0704700440040F9
:1005F00081B0CDF800E00348FFF796FEDDF800E09B
:1006000001B070470038014081B0CDF800E00348E8
:10061000FFF758FFDDF800E001B0704700440040EC
:1006200081B0CDF800E00348FFF758FFDDF800E0A7
:1006300001B070470048004081B0CDF800E00348A9
:10064000FFF772FEDDF800E001B07047004800409F
:1006500081B0CDF800E00348FFF734FFDDF800E09B
:1006600001B07047004C004001480068704700BF6F
:100670000C01224281B0CDF800E00348FFF72EFFC5
:10068000DDF800E001B070470038014081B0CDF8DE
:1006900000E00348FFF716FFDDF800E001B0704707
:1006A0000038014001480068704700BF3001224215
:1006B00001480068704700BF0001214281B0CDF8B9
:1006C00000E08CB21546774B00EA03031E4618463D
:1006D000FFF790FDB4F1FF0F0CD1734B9D4203D196
:1006E0004FF033333360D9E0422D03D14FF0443320
:1006F0003360D3E04FF6FF739C4214D16A4B9D42A6
:1007000007D14FF033333360341D4FF03333236060
:10071000C4E0422D07D14FF044333360341D4FF015
:1007200044332360BAE00021002005F001030BB13F
:1007300000211DE005F0020333B105F4C0730BB1D5
:10074000082100E0042113E005F0040333B105F0B3
:1007500020030BB1042100E0002109E005F00803AB
:1007600033B105F020030BB10C2100E00821FFE7B5
:100770004E4B05EA03030BB1032009E005F40073B7
:100780000BB1022004E005F480630BB10120FFE708
:1007900005F00C030BB10143FFE704F0FF039BB22C
:1007A000002B3BD0376800201FFA84F832462E46D3
:1007B00008282CD24FF0010303FA00F408EA0403DE
:1007C000A34222D185004FF00F03AB40DB4307EA81
:1007D000030401FA05F344EA03031D4606F481739A
:1007E000B3F5817F05D102F214044FF00103834079
:1007F000236006F08203822B05D102F210044FF031
:100800000103834023602F46FFE7401CD0E71760B9
:100810001FFA88F00F463146164602E00F46294679
:10082000A0B2B0F1FF0F39D9331DD3F800800022F8
:10083000082A30D202F208044FF0010303FA04F44C
:1008400000EA0403A34224D195004FF00F03AB400C
:10085000DB4308EA030807FA05F348EA030801F452
:100860008173B3F5817F07D106F2140502F2080403
:100870004FF00103A3402B6001F08203822B07D1CC
:1008800006F2100502F208044FF00103A3402B60AA
:10089000FFE7521CCCE7331DC3F80080DDF800E011
:1008A00001B0704700FCFFFF1400080000080800BA
:1008B00001480068704700BF2801224201480068D3
:1008C000704700BF2C01224201480068704700BFFA
:1008D0001881224201480068704700BF28812242E7
:1008E00001480068704700BF1C8121420148006830
:1008F000704700BF2081224201480068704700BF56
:100900001881214201480068704700BF24812242BB
:1009100001480068704700BF148122420148006806
:10092000704700BF1881214289B0CDF800E08346AE
:1009300098B28C46BDF824100A9E04ACADF80410A1
:10094000ADF808002046FFF79BFCBDF80800BDF895
:100950000410644CA34512D101256DB2624C256090
:10096000624D634C2560634D634C2560634D644C60
:100970002560644D644C2560079C039456E0634CED
:10098000A34512D101256DB2614C2560614D584CD3
:100990002560614D584C2560604D594C2560604D77
:1009A000594C2560069C039440E05E4CA34512D14F
:1009B00001256DB25C4C25605C4D4D4C25605C4D55
:1009C0004D4C25605B4D4E4C25605B4D4E4C25607B
:1009D000069C03942AE0594CA34512D101256DB21F
:1009E000574C2560574D424C2560574D424C256071
:1009F000564D434C2560564D434C2560069C039450
:100A000014E0544CA34511D101256DB2524C256020
:100A1000524D374C2560524D374C2560514D384C66
:100A20002560514D384C2560069C0394ADF80410A8
:100A3000ADF808003046FFF7BDFCBDF80800BDF872
:100A400004100BF1100500242C600BF110052C682C
:100A50000C432C600BF10C0500242C6018B140F401
:100A6000806080B2FFE70BF10C052C6804432C601A
:100A70000BF10C060125346865F34D3434600BF13D
:100A80000C060125346865F3C30434600BF10C06D1
:100A90000125346865F3820434600BF114050024E9
:100AA0002C60039D192465434FEA8C04B5FBF4F7D1
:100AB0006424B7FBF4F42601350964246C433C1B21
:100AC000240104F232056424B5FBF4F404F00F04AD
:100AD00046EA04040BF10805A4B22C60DDF800E03E
:100AE00009B070470038014038034242B90F000096
:100AF000440500208D060000480500207506000012
:100B00004C050020F1050000500500200044004085
:100B1000C4034242590F000009060000D905000035
:100B2000A905000000480040C8034242750F0000BC
:100B3000C10500002106000039060000004C0040FD
:100B4000CC034242251000005106000019050000A8
:100B50003105000000500040D00342424110000027
:100B6000F5040000850500006105000081B0044621
:100B700040F20000ADF8002082B20846BDF8001037
:100B800059B183181B782370237813B1521C92B289
:100B9000FFE7641C491E89B2F2E701B07047FFFF0E
:100BA00081B0CDF800E004462046FFF7C3FBC5B294
:100BB000204600F04BFE0124EBB20D4909888C421F
:100BC00011D222010B4989180988994208D12201C2
:100BD00008498918091D0968814201D1A0B203E0C2
:100BE000641CA4B2E9E70020DDF800E001B0704722
:100BF0000C0200201002002001480068704700BF6E
:100C00003081224281B0ADF800100146BDF80000ED
:100C10000B68C3F3C01202B9FAE70A1D106001B0F5
:100C20007047FFFF85B0CDF800E0824602918DF855
:100C30000C208DF810305046FFF77CFB8DF811002A
:100C4000C4B2102C02D910248DF81140012751464E
:100C50009DF80C40A7423FD2032404FB07F5029CF9
:100C6000641901912046FFF765FB0199C2B240F279
:100C7000000C8A46F9B25FFA8CFB5FFA82FC9DF8A1
:100C80001140A34523D20AEB0B06032404FB01F514
:100C9000029C64198DF804105FFA8CF231462046EC
:100CA000FFF75AFB9DF8041058B99DF810400CB995
:100CB000C8B212E09DF81040012C02D15FFA8BF00F
:100CC0000BE00BF10104E0B25FFA80FBD7E74C1CAC
:100CD000E5B25146EFB2BBE70020DDF800E005B019
:100CE0007047FFFF01480068704700BF08012242BB
:100CF00001480068704700BF348122420148006803
:100D0000704700BF2C81224201480068704700BF35
:100D10001001214201490860704700BF9C812142B7
:100D200001490860704700BF98812142014908606D
:100D3000704700BF9881224201490860704700BF98
:100D40009481224289B0CDF800E0069007910DF120
:100D5000040B0BF1110ADFF8B0C001F0D1F8002349
:100D600007222A490698FFF75DFF8DF8200001232E
:100D7000072226490698FFF755FF8DF8210000232A
:100D8000062223490698FFF74DFF8DF82200012324
:100D900006221F490698FFF745FFC1B208B9102087
:100DA00000E0C8B29DF82120841A9DF82130069AEF
:100DB000D31801AA19461046A2B2FFF7D7FE01AA1E
:100DC0001046FFF7EDFEC1B2C2B21301114AD218AC
:100DD0000C321368079A1360079A141D0B010D4A11
:100DE000D218083212682260079A02F208039DF8AE
:100DF00020201A70079A0832531C9DF822201A707E
:100E0000DDF800E009B07047B4240000D1000020F4
:100E1000E60000201002002081B0CDF800E0054C73
:100E20002468A04708B1002000E00120DDF800E0C0
:100E300001B0704720040020002215490A700022EA
:100E400014490A70012214490A70002213490A60E9
:100E5000012213490A7013490A8813498918087036
:100E6000104909884A1C0F490A800E490A880F490F
:100E70008A4202D301220E490A700A490988B1F157
:100E8000FF0F04D1074909884A1E06490A807047A6
:100E9000F9000020FA000020FB00002004010020DF
:100EA000080100200A0100200C010020C000000001
:100EB0000901002081B0CDF800E0044C2468A0476F
:100EC000C0B2DDF800E001B0704700BF140400209C
:100ED00081B0CDF800E0044C2468A047C0B2DDF832
:100EE00000E001B0704700BF000100200149086028
:100EF000704700BFAC81224201490860704700BFC3
:100F0000B481224201490860704700BFA801224213
:100F100001490860704700BF900121420149086003
:100F2000704700BF8801224201490860704700BF36
:100F30008001214201490860704700BFA881224218
:100F400001490860704700BFAC01224201490860B6
:100F5000704700BFB001224281B0CDF800E081B2FD
:100F60000348FFF74FFEDDF800E001B0704700BF17
:100F70000044004081B0CDF800E081B20348FFF7A3
:100F800041FEDDF800E001B0704700BF00480040BE
:100F900081B0CDF800E0019D2C4610B408B493B2A6
:100FA0008AB201460348FFF7BFFC02B0DDF800E05B
:100FB00001B070470038014081B0CDF800E081B247
:100FC0000348FFF71FFEDDF800E001B0704700BFE7
:100FD0000038014081B0CDF800E0019D2C4610B4EE
:100FE00008B493B28AB201460348FFF79DFC02B0F1
:100FF000DDF800E001B070470044004081B0CDF85A
:1010000000E0019D2C4610B408B493B28AB20146A8
:101010000348FFF789FC02B0DDF800E001B070473B
:101020000048004081B0CDF800E081B20348FFF7EE
:10103000E9FDDDF800E001B0704700BF004C004062
:1010400081B0CDF800E081B20348FFF7DBFDDDF8A9
:1010500000E001B0704700BF0050004081B0CDF803
:1010600000E0034C2468A047DDF800E001B07047C1
:101070001004002001490860704700BFB0012242FF
:1010800001490860704700BF94012142014908608E
:10109000704700BFAC01224201490860704700BFA1
:1010A000B881224201490860704700BF8C0122428A
:1010B00001490860704700BFA80122420149086049
:1010C000704700BF9881214201490860704700BF06
:1010D0009C81214201490860704700BFA4812242DF
:1010E00001490860704700BFA081224201490860A1
:1010F000704700BFB081224281B0CDF800E04FF0D0
:10110000420289B2FFF7DAFADDF800E001B0704779
:1011100081B0CDF800E0044A89B2FFF7CFFADDF8DC
:1011200000E001B0704700BF1400080081B0CDF8A6
:1011300000E0094902B440F2000340F2000240F22C
:101140000001FFF725FF01B0044A05490A600020AD
:10115000DDF800E001B070477C230000B90F00000B
:10116000FC00002084B0CDF800E002908DF80C1057
:10117000029A1278E2B1144A127882B1FFF74CFE5B
:1011800020B1002252B28DF8042003E0012252B2B5
:101190008DF804209DF904200AB100BFEEE7029A01
:1011A0001278D0B2FFF75AFF029A521C0292DFE780
:1011B0009DF80C00FFF752FF0A20FFF74FFFDDF804
:1011C00000E004B0704700BF3104002081B0CDF8CA
:1011D00000E0A9E0012905D140F210016548FFF7C0
:1011E0008BFF04E040F210016248FFF791FFBBE083
:1011F000012905D140F204015F48FFF77DFF04E0BB
:1012000040F204015C48FFF783FFADE0012905D1FE
:1012100042F200015948FFF76FFF04E042F200017B
:101220005648FFF775FF9FE0012905D140F20041C4
:101230005148FFF761FF04E040F200414E48FFF7DC
:1012400067FF91E0012905D140F600014A48FFF708
:1012500053FF04E040F600014748FFF759FF83E0E1
:10126000012905D141F200014348FFF745FF04E0A1
:1012700041F200014048FFF74BFF75E0012905D11D
:1012800040F201013B48FFF737FF04E040F2010163
:101290003848FFF73DFF67E0012905D140F20041E2
:1012A0003648FFF729FF04E040F200413348FFF7DA
:1012B0002FFF59E0012905D140F200212F48FFF707
:1012C0001BFF04E040F200212C48FFF721FF4BE018
:1012D000012905D140F200112848FFF70DFF04E075
:1012E00040F200112548FFF713FF3DE0012905D129
:1012F00040F240012248FFF7FFFE04E040F24001C7
:101300001F48FFF705FF2FE0012905D140F28001BA
:101310001B48FFF7F1FE04E040F280011848FFF798
:10132000F7FE21E0012020E000283FF453AF012820
:101330003FF45EAF02283FF469AF03283FF474AF77
:1013400004283FF47FAF05283FF48AAF06283FF416
:1013500095AF0728A0D00828ACD00928B8D00A2813
:10136000C4D00B28D0D0DDE70020DDF800E001B0CC
:10137000704700BF00080140001001400014014008
:10138000000C014081B0CDF800E00B4D00F20C01E3
:101390000C6800F208010B68011D0A680168084624
:1013A00091B29AB2A3B220B4FFF728FE01B0002098
:1013B000DDF800E001B07047E823000081B0CDF80F
:1013C00000E0A9E0012905D140F220016548FFF7BE
:1013D00093FE04E040F220016248FFF799FEBBE073
:1013E000012905D140F208015F48FFF785FE04E0BE
:1013F00040F208015C48FFF78BFEADE0012905D102
:1014000044F200015948FFF777FE04E044F200017E
:101410005648FFF77DFE9FE0012905D140F20041CB
:101420005148FFF769FE04E040F200414E48FFF7E3
:101430006FFE91E0012905D140F600014A48FFF70F
:101440005BFE04E040F600014748FFF761FE83E0E1
:10145000012905D141F200014348FFF74DFE04E0A8
:1014600041F200014048FFF753FE75E0012905D124
:1014700041F200013D48FFF73FFE04E041F2000168
:101480003A48FFF745FE67E0012905D140F6000123
:101490003648FFF731FE04E040F600013348FFF71D
:1014A00037FE59E0012905D140F240012F48FFF7EE
:1014B00023FE04E040F240012C48FFF729FE4BE0F8
:1014C000012905D140F220012848FFF715FE04E06C
:1014D00040F220012548FFF71BFE3DE0012905D120
:1014E00040F240012248FFF707FE04E040F24001CD
:1014F0001F48FFF70DFE2FE0012905D140F28001C2
:101500001B48FFF7F9FD04E040F280011848FFF79F
:10151000FFFD21E0012020E000283FF453AF012827
:101520003FF45EAF02283FF469AF03283FF474AF85
:1015300004283FF47FAF05283FF48AAF06283FF424
:1015400095AF0728A0D00828ACD00928B8D00A2821
:10155000C4D00B28D0D0DDE70020DDF800E001B0DA
:10156000704700BF00080140001001400014014016
:10157000000C014081B0CDF800E0094902B440F20E
:10158000000340F2000240F20001FFF723FD01B02A
:10159000044A05490A600020DDF800E001B0704708
:1015A00010230000590F0000FC00002081B0CDF88E
:1015B00000E0094902B440F2000340F2000240F2A8
:1015C0000001FFF71BFD01B0044A05490A60002035
:1015D000DDF800E001B07047E8230000750F00005F
:1015E000FC00002081B0CDF800E00B4D00F20C01B2
:1015F0000C6800F208010B68011D0A6801680846C2
:1016000091B29AB2A3B220B4FFF7E4FC01B000207B
:10161000DDF800E001B07047102300000A460146E3
:1016200040F2000440F2000086B21046A3B2621CF1
:1016300095B2CC18B3B2721C96B2C218127822704E
:1016400022780AB1ACB2F1E77047FFFF81B0CDF864
:1016500000E00020012806D0FFF72CFC18B1FFF7AE
:1016600037FCFFF7E9FB52480078002800F03A8089
:101670005048007810B1002000F0B2F800214E4828
:10168000017000214D4801704D480078022805D1B5
:101690004C494D484D4C2468A0470BE04B494A4803
:1016A000FFF750FB02214648017046494648474C27
:1016B0002468A04700213E48017000214448018071
:1016C0000021414801700021424801700021424838
:1016D00001700021414801703648007810B10120A6
:1016E00000F07EF83C48007800282CD03148007883
:1016F00010B1002000F074F800212F480170002183
:101700002E48017031493048FFF71CFB00212C485E
:1017100001702C492C482D4C2468A04700212C48EE
:10172000018000212848017000212A480170002111
:10173000294801700021294801701E48007810B125
:10174000012000F04DF82348007800282CD01948DB
:10175000007810B1002000F043F800211648017015
:1017600000211648017019491748FFF7EBFA0121CB
:101770001348017013491448144C2468A0470021F1
:1017800013480180002110480170002111480170A8
:1017900000211148017000211048017005480078AF
:1017A00010B1012000F01CF8DDF800E001B0704736
:1017B000090100203104002008010020300400202D
:1017C0003E0400203C0400200C01002034040020D2
:1017D0000A010020F9000020FA000020FB00002090
:1017E00081B0CDF800E0012804D10020054C246828
:1017F000A04703E00120034C2468A047DDF800E087
:1018000001B070472404002044F67F77C0F212072D
:101810007F1EFDD100BF00BF00BF00BF00BF7047EB
:1018200041F6FF27C0F2B7077F1EFDD100BF00BF02
:1018300000BF00BF00BF704781B0CDF800E00121BC
:1018400000F0D0F8DDF800E001B0704700214FF063
:1018500005040346C8B21A46591C0B461178CAB291
:101860004AB100F00701C9B202FA01F189B2641865
:10187000401CC0B2EFE720467047FFFF81B004284C
:1018800006D11949096841F4803217490A6028E0F5
:10189000052806D11449096841F4003212490A604A
:1018A0001FE0062806D11049096841F480220E493C
:1018B0000A6016E00F2806D10C49096841F00202BF
:1018C0000A490A600DE010280BD3A0F21004610948
:1018D0008A0007498B1804F01F024FF00101914064
:1018E000196001B0704700BF24ED00E010E000E097
:1018F00000E100E081B0CDF800E00178CCB2A0B208
:10190000034C2468A0470020DDF800E001B07047D8
:10191000FC00002081B0CDF800E0094902B440F29B
:10192000000340F2000240F20001FFF753FB01B058
:10193000044A05490A600020DDF800E001B0704764
:1019400010230000590F0000FC00002000F23003BB
:101950001A680B490A6003F218010A6809490A600B
:1019600003F21C010A6808490A6000F208010A68CB
:1019700006490A60011D0A6805490A60704700BFF0
:10198000180400201C04002020040020240400204F
:1019900028040020026806490A60011D0A680549FA
:1019A0000A6000F208010A6803490A60704700BF34
:1019B00010040020000100201404002081B0EFF387
:1019C000108C604662B601B07047FFFF81B0CDF861
:1019D00000E0034C2468A047DDF800E001B0704748
:1019E0001C04002083B0CDF800E0024610460D2212
:1019F0008DF808200A228DF809201FE0FFF77AFFF2
:101A000023E002782AB10190FFF774FF0198401C8F
:101A1000F7E71AE002782AB10190FFF76BFF01980F
:101A2000401CF7E702AA1046FFF764FF0DF1090218
:101A30001046FFF75FFF08E0062007E00029DDD031
:101A40000129DED00229E5D0F6E70020DDF800E02C
:101A500003B0704781B0CDF800E0012149B20E48D3
:101A60000160002149B20D48016001210C4801606C
:101A700048F69F410B48016040F22C00FFF7FEFE44
:101A8000012149B20848016004480160FFF796FF50
:101A9000DDF800E001B070478003424200000042E0
:101AA000280000402C0000408001004281B0CDF8A9
:101AB00000E011E00846FFF779FD16E00846FFF761
:101AC00059FD12E00846FFF731FB0EE00846FFF72C
:101AD00021FF0AE0012008E00028EBD00128EDD02A
:101AE0002028EFD03028F1D0F4E7DDF800E001B095
:101AF0007047FFFF81B0CDF800E05FFA81F95FFA2F
:101B000082FA0FE05FFA8AF15FFA89F0FFF75EFB75
:101B10000DE05FFA8AF15FFA89F0FFF74FFC06E00B
:101B2000012004E00028EDD00128F2D0F8E7DDF82C
:101B300000E001B07047FFFF81B0CDF800E009E0A0
:101B40000846FFF71FFC0AE00846FFF74BFD06E0DA
:101B5000012004E00028F3D00128F5D0F8E7DDF8F3
:101B600000E001B07047FFFF01490870704700BFF7
:101B70003104002081B0CDF800E070B30120194C91
:101B80002468A047FFF740FE0020164C2468A047B9
:101B9000FFF73AFE0120134C2468A047FFF740FEF0
:101BA000FFF73EFEFFF73CFEFFF73AFEFFF738FE79
:101BB000FFF736FEFFF734FEFFF732FEFFF730FE89
:101BC000FFF72EFEFFF72CFEFFF72AFEFFF728FE99
:101BD000FFF726FEFFF724FEFFE7DDF800E001B087
:101BE000704700BF2804002082B0CDF800E00190CB
:101BF00001991A48FFF712FD1949097811B1FFF749
:101C000025FDF9E717490198FFF79CF80D21019888
:101C1000FFF7A8FA0021002907D0042212490A7010
:101C200012490E480F4C2468A047002210490A7040
:101C3000002210490A70012209490A7000220E4947
:101C40000A6001220D490A700549097811B1FFF7B0
:101C5000FDFCF9E7DDF800E002B070474004002029
:101C6000FB000020340400203E0400203C0400203F
:101C7000F9000020FA0000202C040020300400208D
:101C800081B0CDF800E003460846FFF783FE184612
:101C9000FFF75CFEDDF800E001B0704781B0CDF8E1
:101CA00000E00023274A13700023274A1370002303
:101CB000264A13700023264A1370264A1060264ACB
:101CC0001160264A1046FFF7C1FD254A1060002327
:101CD000244A13800123244A13800023234A1380BB
:101CE0000023234A13700023194A13700023174A54
:101CF00013700123134A13700023154A1370002335
:101D0000124A137000230F4A13700023194A1360FC
:101D10000123194A13700023174A13700023174A2E
:101D200013600123164A13700023154A1370154AD5
:101D3000127812B10120FFF753FDDDF800E001B089
:101D4000704700BFFB00002009010020FA000020BE
:101D5000F90000201C02002018020020F8000020DA
:101D600014020020100200200C0200200A010020B2
:101D70000C0100202C04002030040020040100206D
:101D8000080100203104002081B0CDF800E0FFF709
:101D90005DFCFFF71BFEA0B91248FFF725FF1248B4
:101DA0000221FFF71FFE1148FFF71EFF45F2FF0754
:101DB000C0F2252700BF00BF7F1EFDD100BF00BFBE
:101DC00000BF0B48016840F6B830814205D9094888
:101DD000FFF70AFF002106480160DDF800E001B0CE
:101DE000704700BF920000209A000020B000002041
:101DF000B4000020B800002081B01548006840F011
:101E0000010113480160134913480160104801683B
:101E1000124801400E4801600D4801686FF48020AF
:101E200001400B4801600C4801686FF4FE0001405E
:101E300009480160064801686FF0A050014004485D
:101E400001604FF000010648016001B0704700BF1B
:101E5000001002400000FFF004100240FFFFF6FEF9
:101E60002C1002401C480078C8B11C4802681B486E
:101E70000068411C194801601948006882420ED967
:101E8000002115480170002114480160154801889F
:101E900015484118002008700121144801701448A9
:101EA0000078C0B11348026812480068411C11480C
:101EB0000160114882420ED900210D4801700021B5
:101EC0000C48016007480188074841180020087045
:101ED00001210A4801707047300400202C040020C2
:101EE000380400200A0100200C010020F900002025
:101EF000080100200401002005000000FA00002075
:101F000081B01CF8019B0BF8019BBBEB0A0FF8D1C9
:101F100001B0704781B0CDF800E00122002100201F
:101F2000FFF7E8FD012206210020FFF7E3FD012273
:101F300007210020FFF7DEFD002201210020FFF72E
:101F4000D9FD002202210020FFF7D4FD08480146F8
:101F50000020FFF7F1FD42F280512020FFF7A6FD9F
:101F600004480221FFF73EFDDDF800E001B07047B4
:101F7000C82400000000002081B0CDF800E0FFF789
:101F800069FD1E491E48FFF77BFE1E4840F2DC51EA
:101F9000FFF784FE0120FFF7E7FD0120FFF7EAFDD0
:101FA0001948FFF721FE1948FFF71EFE1848FFF7F2
:101FB0001BFE1848FFF718FE1748FFF715FE1748D5
:101FC0000221FFF70FFD1648FFF70EFE45F2FF074F
:101FD000C0F2252700BF00BF7F1EFDD100BF00BF9C
:101FE00000BF10480221FFF7FDFC0F480221FFF758
:101FF000F9FCDDF800E001B0704700BFE824000004
:10200000542400003918000015000020180000209A
:102010001C000020210000202D000020370000209F
:102020004E0000205D0000207500002081B04FF0C0
:1020300000094FF0000CBDEB0A0F04DCBDEB0B0FE9
:1020400001DBD446EA464BF8049BBBEB0A0FFAD1FE
:10205000BCEB0A0F05DDE246D9F800B00BF1040B2A
:10206000F1E701B07047FFFF81B0FEE701B07047B4
:1020700081B0CDF800E0FFF7F5FE06490868401C86
:102080000860002149B204480160DDF800E001B0B9
:10209000704700BFB40000200002004281B0CDF8BC
:1020A00000E0464A464B474C47494BF68030814258
:1020B00006D94648006840F002014448016011E03A
:1020C00045F6C050814206D94048006840F0010101
:1020D0003E48016006E03D4801686FF0070001409E
:1020E0003A480160FFF788FE3948036039480460C8
:1020F000394802EA00013948016002F0010040B1AC
:1021000019463648006800F00200002800D1F8E7C0
:1021100000E0194602F4803040B10B462F480068B9
:1021200000F40030002800D1F8E700E00B4602F090
:10213000805068B12948006840F08051274801600C
:102140002648006800F00050002800D1F8E7FFE7BB
:1021500002F0806078B12148006840F080611F483B
:10216000016011461A461D48006800F00060002812
:1021700000D1F8E701E011461A4601F0807070B115
:102180001648006840F080711448016011461348F9
:10219000006800F0007000B9F9E70A46FFE70C4854
:1021A000006800F00C01900000F00C00814200D0AB
:1021B000F5E7DDF800E001B0704700BF81000105E0
:1021C00002841D0044060100401901000020024065
:1021D000041002402C100240FFFF0F0000100240CC
:1021E000FFF75CFF00F0C8F900F00AF800F084F98E
:1021F000FFF790FEFFF7C0FEFFF7C6FDFCE7FEE726
:1022000081B002490248016001B0704740190100E5
:10221000400500202D2D2D2D20537461727420490E
:102220006E6974202D2D2D2D00415400415449001C
:10223000415445300041542B4946433D322C320035
:102240000041542B434D47463D31002D2D2D2D206F
:1022500047534D20496E697420646F6E65202D2DA3
:102260002D0041542B51474E5353433D3100000044
:10227000002D2D2D2D20474E535320496E6974207B
:10228000646F6E65202D2D2D002D2D2D2D20506C71
:10229000656173652C2063616C6C206D65203A2943
:1022A000202D2D2D2D0041542B434C4343002D2D2B
:1022B0002D2043616C6C20646574656374656420D3
:1022C0002D2D2D00415448000000000041542B5199
:1022D000474E535352443D224E4D45412F474741AF
:1022E00022000000000000002B000023000024005A
:1022F00000255C002600000000000000003D3F00BB
:102300003F00003D00003A00000D000000FFFFFF0D
:102310003500000036000000FFFFFFFF0000000056
:1023200000000000000000000000000000000000AD
:10233000000000000000000000000000000000009D
:102340000000000018080000180000000000000055
:10235000000000000000000000000000000000007D
:10236000000000000000000000000000000000006D
:102370000000000000000000080000080900000044
:102380000A000000FFFFFFFF000000000000000047
:10239000000000000000000000000000000000003D
:1023A000000000000000000000000000000000002D
:1023B00018080000180000000000000000000000E5
:1023C000000000000000000000000000000000000D
:1023D00000000000000000000000000000000000FD
:1023E0000000000004000000380000003900000078
:1023F000FFFFFFFF000000000000000000000000E1
:1024000000000000000000000000000000000000CC
:10241000000000000000000000000000180800009C
:102420001800000000000000000000000000000094
:10243000000000000000000000000000000000009C
:10244000000000000000000000000000000000008C
:1024500030001408110F00001D0F0000F90E0000DD
:10246000050F0000410F00004D0F0000290F000074
:10247000350F0000D5100000E1100000BD10000075
:10248000C9100000090D0000E50C0000F10C00006F
:10249000B1080000BD080000A5060000B10600005C
:1024A000D508000005090000ED080000F90800004B
:1024B000790500000000000000000000000000009E
:1024C0000000000000FFFFFF80250000000000006A
:1024D00000000000000000000000000001020304F2
:1024E0000102030406070809750F0000C10500007A
:1024F000210600000204060800B5DFF814B0DFF87A
:1025000014A0DFF814C0FFF7FBFC00BD704700BF4C
:1025100000000020F900002014220000FFFFFFFF50
:10252000FFFFFFFFFFFFFFFFFFFFFFFFFFFFFFFFBB
:10253000FFFFFFFFFFFFFFFFFFFFFFFFFFFFFFFFAB
:10254000FFFFFFFFFFFFFFFFFFFFFFFFFFFFFFFF9B
:10255000FFFFFFFFFFFFFFFFFFFFFFFFFFFFFFFF8B
:10256000FFFFFFFFFFFFFFFFFFFFFFFFFFFFFFFF7B
:10257000FFFFFFFFFFFFFFFF00B5DFF810B0DFF840
:1025800010A0FFF753FD00BD704700BF0000002002
:1025900054050020FFFFFFFFFFFFFFFFFFFFFFFFCE
:00000001FF
